{
  "_format": "hh-sol-artifact-1",
  "contractName": "NFTProofAI",
  "sourceName": "contracts/NFTProofAI.sol",
  "abi": [
    {
      "inputs": [],
      "stateMutability": "nonpayable",
      "type": "constructor"
    },
    {
      "inputs": [
        {
          "internalType": "address",
          "name": "sender",
          "type": "address"
        },
        {
          "internalType": "uint256",
          "name": "tokenId",
          "type": "uint256"
        },
        {
          "internalType": "address",
          "name": "owner",
          "type": "address"
        }
      ],
      "name": "ERC721IncorrectOwner",
      "type": "error"
    },
    {
      "inputs": [
        {
          "internalType": "address",
          "name": "operator",
          "type": "address"
        },
        {
          "internalType": "uint256",
          "name": "tokenId",
          "type": "uint256"
        }
      ],
      "name": "ERC721InsufficientApproval",
      "type": "error"
    },
    {
      "inputs": [
        {
          "internalType": "address",
          "name": "approver",
          "type": "address"
        }
      ],
      "name": "ERC721InvalidApprover",
      "type": "error"
    },
    {
      "inputs": [
        {
          "internalType": "address",
          "name": "operator",
          "type": "address"
        }
      ],
      "name": "ERC721InvalidOperator",
      "type": "error"
    },
    {
      "inputs": [
        {
          "internalType": "address",
          "name": "owner",
          "type": "address"
        }
      ],
      "name": "ERC721InvalidOwner",
      "type": "error"
    },
    {
      "inputs": [
        {
          "internalType": "address",
          "name": "receiver",
          "type": "address"
        }
      ],
      "name": "ERC721InvalidReceiver",
      "type": "error"
    },
    {
      "inputs": [
        {
          "internalType": "address",
          "name": "sender",
          "type": "address"
        }
      ],
      "name": "ERC721InvalidSender",
      "type": "error"
    },
    {
      "inputs": [
        {
          "internalType": "uint256",
          "name": "tokenId",
          "type": "uint256"
        }
      ],
      "name": "ERC721NonexistentToken",
      "type": "error"
    },
    {
      "inputs": [
        {
          "internalType": "address",
          "name": "owner",
          "type": "address"
        }
      ],
      "name": "OwnableInvalidOwner",
      "type": "error"
    },
    {
      "inputs": [
        {
          "internalType": "address",
          "name": "account",
          "type": "address"
        }
      ],
      "name": "OwnableUnauthorizedAccount",
      "type": "error"
    },
    {
      "anonymous": false,
      "inputs": [
        {
          "indexed": true,
          "internalType": "address",
          "name": "owner",
          "type": "address"
        },
        {
          "indexed": true,
          "internalType": "address",
          "name": "approved",
          "type": "address"
        },
        {
          "indexed": true,
          "internalType": "uint256",
          "name": "tokenId",
          "type": "uint256"
        }
      ],
      "name": "Approval",
      "type": "event"
    },
    {
      "anonymous": false,
      "inputs": [
        {
          "indexed": true,
          "internalType": "address",
          "name": "owner",
          "type": "address"
        },
        {
          "indexed": true,
          "internalType": "address",
          "name": "operator",
          "type": "address"
        },
        {
          "indexed": false,
          "internalType": "bool",
          "name": "approved",
          "type": "bool"
        }
      ],
      "name": "ApprovalForAll",
      "type": "event"
    },
    {
      "anonymous": false,
      "inputs": [
        {
          "indexed": false,
          "internalType": "uint256",
          "name": "_fromTokenId",
          "type": "uint256"
        },
        {
          "indexed": false,
          "internalType": "uint256",
          "name": "_toTokenId",
          "type": "uint256"
        }
      ],
      "name": "BatchMetadataUpdate",
      "type": "event"
    },
    {
      "anonymous": false,
      "inputs": [
        {
          "indexed": false,
          "internalType": "uint256",
          "name": "_tokenId",
          "type": "uint256"
        }
      ],
      "name": "MetadataUpdate",
      "type": "event"
    },
    {
      "anonymous": false,
      "inputs": [
        {
          "indexed": true,
          "internalType": "address",
          "name": "previousOwner",
          "type": "address"
        },
        {
          "indexed": true,
          "internalType": "address",
          "name": "newOwner",
          "type": "address"
        }
      ],
      "name": "OwnershipTransferred",
      "type": "event"
    },
    {
      "anonymous": false,
      "inputs": [
        {
          "indexed": true,
          "internalType": "address",
          "name": "from",
          "type": "address"
        },
        {
          "indexed": true,
          "internalType": "address",
          "name": "to",
          "type": "address"
        },
        {
          "indexed": true,
          "internalType": "uint256",
          "name": "tokenId",
          "type": "uint256"
        }
      ],
      "name": "Transfer",
      "type": "event"
    },
    {
      "inputs": [
        {
          "internalType": "address",
          "name": "to",
          "type": "address"
        },
        {
          "internalType": "uint256",
          "name": "tokenId",
          "type": "uint256"
        }
      ],
      "name": "approve",
      "outputs": [],
      "stateMutability": "nonpayable",
      "type": "function"
    },
    {
      "inputs": [
        {
          "internalType": "address",
          "name": "owner",
          "type": "address"
        }
      ],
      "name": "balanceOf",
      "outputs": [
        {
          "internalType": "uint256",
          "name": "",
          "type": "uint256"
        }
      ],
      "stateMutability": "view",
      "type": "function"
    },
    {
      "inputs": [
        {
          "internalType": "uint256",
          "name": "tokenId",
          "type": "uint256"
        }
      ],
      "name": "getApproved",
      "outputs": [
        {
          "internalType": "address",
          "name": "",
          "type": "address"
        }
      ],
      "stateMutability": "view",
      "type": "function"
    },
    {
      "inputs": [],
      "name": "getTokenIdCounter",
      "outputs": [
        {
          "internalType": "uint256",
          "name": "",
          "type": "uint256"
        }
      ],
      "stateMutability": "view",
      "type": "function"
    },
    {
      "inputs": [
        {
          "internalType": "address",
          "name": "owner",
          "type": "address"
        },
        {
          "internalType": "address",
          "name": "operator",
          "type": "address"
        }
      ],
      "name": "isApprovedForAll",
      "outputs": [
        {
          "internalType": "bool",
          "name": "",
          "type": "bool"
        }
      ],
      "stateMutability": "view",
      "type": "function"
    },
    {
      "inputs": [
        {
          "internalType": "address",
          "name": "to",
          "type": "address"
        },
        {
          "internalType": "string",
          "name": "tokenURI",
          "type": "string"
        }
      ],
      "name": "mint",
      "outputs": [
        {
          "internalType": "uint256",
          "name": "",
          "type": "uint256"
        }
      ],
      "stateMutability": "nonpayable",
      "type": "function"
    },
    {
      "inputs": [],
      "name": "name",
      "outputs": [
        {
          "internalType": "string",
          "name": "",
          "type": "string"
        }
      ],
      "stateMutability": "view",
      "type": "function"
    },
    {
      "inputs": [],
      "name": "owner",
      "outputs": [
        {
          "internalType": "address",
          "name": "",
          "type": "address"
        }
      ],
      "stateMutability": "view",
      "type": "function"
    },
    {
      "inputs": [
        {
          "internalType": "uint256",
          "name": "tokenId",
          "type": "uint256"
        }
      ],
      "name": "ownerOf",
      "outputs": [
        {
          "internalType": "address",
          "name": "",
          "type": "address"
        }
      ],
      "stateMutability": "view",
      "type": "function"
    },
    {
      "inputs": [],
      "name": "renounceOwnership",
      "outputs": [],
      "stateMutability": "nonpayable",
      "type": "function"
    },
    {
      "inputs": [
        {
          "internalType": "address",
          "name": "from",
          "type": "address"
        },
        {
          "internalType": "address",
          "name": "to",
          "type": "address"
        },
        {
          "internalType": "uint256",
          "name": "tokenId",
          "type": "uint256"
        }
      ],
      "name": "safeTransferFrom",
      "outputs": [],
      "stateMutability": "nonpayable",
      "type": "function"
    },
    {
      "inputs": [
        {
          "internalType": "address",
          "name": "from",
          "type": "address"
        },
        {
          "internalType": "address",
          "name": "to",
          "type": "address"
        },
        {
          "internalType": "uint256",
          "name": "tokenId",
          "type": "uint256"
        },
        {
          "internalType": "bytes",
          "name": "data",
          "type": "bytes"
        }
      ],
      "name": "safeTransferFrom",
      "outputs": [],
      "stateMutability": "nonpayable",
      "type": "function"
    },
    {
      "inputs": [
        {
          "internalType": "address",
          "name": "operator",
          "type": "address"
        },
        {
          "internalType": "bool",
          "name": "approved",
          "type": "bool"
        }
      ],
      "name": "setApprovalForAll",
      "outputs": [],
      "stateMutability": "nonpayable",
      "type": "function"
    },
    {
      "inputs": [
        {
          "internalType": "bytes4",
          "name": "interfaceId",
          "type": "bytes4"
        }
      ],
      "name": "supportsInterface",
      "outputs": [
        {
          "internalType": "bool",
          "name": "",
          "type": "bool"
        }
      ],
      "stateMutability": "view",
      "type": "function"
    },
    {
      "inputs": [],
      "name": "symbol",
      "outputs": [
        {
          "internalType": "string",
          "name": "",
          "type": "string"
        }
      ],
      "stateMutability": "view",
      "type": "function"
    },
    {
      "inputs": [],
      "name": "tokenIdCounter",
      "outputs": [
        {
          "internalType": "uint256",
          "name": "",
          "type": "uint256"
        }
      ],
      "stateMutability": "view",
      "type": "function"
    },
    {
      "inputs": [
        {
          "internalType": "uint256",
          "name": "tokenId",
          "type": "uint256"
        }
      ],
      "name": "tokenURI",
      "outputs": [
        {
          "internalType": "string",
          "name": "",
          "type": "string"
        }
      ],
      "stateMutability": "view",
      "type": "function"
    },
    {
      "inputs": [
        {
          "internalType": "address",
          "name": "from",
          "type": "address"
        },
        {
          "internalType": "address",
          "name": "to",
          "type": "address"
        },
        {
          "internalType": "uint256",
          "name": "tokenId",
          "type": "uint256"
        }
      ],
      "name": "transferFrom",
      "outputs": [],
      "stateMutability": "nonpayable",
      "type": "function"
    },
    {
      "inputs": [
        {
          "internalType": "address",
          "name": "newOwner",
          "type": "address"
        }
      ],
      "name": "transferOwnership",
      "outputs": [],
      "stateMutability": "nonpayable",
      "type": "function"
    }
  ],
  "bytecode": "0x60806040523480156200001157600080fd5b50336040518060400160405280600a81526020017f4e465450726f6f664149000000000000000000000000000000000000000000008152506040518060400160405280600481526020017f4e50414900000000000000000000000000000000000000000000000000000000815250816000908162000090919062000472565b508060019081620000a2919062000472565b505050600073ffffffffffffffffffffffffffffffffffffffff168173ffffffffffffffffffffffffffffffffffffffff16036200011a5760006040517f1e4fbdf70000000000000000000000000000000000000000000000000000000081526004016200011191906200059e565b60405180910390fd5b6200012b816200013260201b60201c565b50620005bb565b6000600760009054906101000a900473ffffffffffffffffffffffffffffffffffffffff16905081600760006101000a81548173ffffffffffffffffffffffffffffffffffffffff021916908373ffffffffffffffffffffffffffffffffffffffff1602179055508173ffffffffffffffffffffffffffffffffffffffff168173ffffffffffffffffffffffffffffffffffffffff167f8be0079c531659141344cd1fd0a4f28419497f9722a3daafe3b4186f6b6457e060405160405180910390a35050565b600081519050919050565b7f4e487b7100000000000000000000000000000000000000000000000000000000600052604160045260246000fd5b7f4e487b7100000000000000000000000000000000000000000000000000000000600052602260045260246000fd5b600060028204905060018216806200027a57607f821691505b60208210810362000290576200028f62000232565b5b50919050565b60008190508160005260206000209050919050565b60006020601f8301049050919050565b600082821b905092915050565b600060088302620002fa7fffffffffffffffffffffffffffffffffffffffffffffffffffffffffffffffff82620002bb565b620003068683620002bb565b95508019841693508086168417925050509392505050565b6000819050919050565b6000819050919050565b6000620003536200034d62000347846200031e565b62000328565b6200031e565b9050919050565b6000819050919050565b6200036f8362000332565b620003876200037e826200035a565b848454620002c8565b825550505050565b600090565b6200039e6200038f565b620003ab81848462000364565b505050565b5b81811015620003d357620003c760008262000394565b600181019050620003b1565b5050565b601f8211156200042257620003ec8162000296565b620003f784620002ab565b8101602085101562000407578190505b6200041f6200041685620002ab565b830182620003b0565b50505b505050565b600082821c905092915050565b6000620004476000198460080262000427565b1980831691505092915050565b600062000462838362000434565b9150826002028217905092915050565b6200047d82620001f8565b67ffffffffffffffff81111562000499576200049862000203565b5b620004a5825462000261565b620004b2828285620003d7565b600060209050601f831160018114620004ea5760008415620004d5578287015190505b620004e1858262000454565b86555062000551565b601f198416620004fa8662000296565b60005b828110156200052457848901518255600182019150602085019450602081019050620004fd565b8683101562000544578489015162000540601f89168262000434565b8355505b6001600288020188555050505b505050505050565b600073ffffffffffffffffffffffffffffffffffffffff82169050919050565b6000620005868262000559565b9050919050565b620005988162000579565b82525050565b6000602082019050620005b560008301846200058d565b92915050565b6126dc80620005cb6000396000f3fe608060405234801561001057600080fd5b50600436106101215760003560e01c80638da5cb5b116100ad578063c87b56dd11610071578063c87b56dd146102f4578063d0def52114610324578063dbfd4b9814610354578063e985e9c514610372578063f2fde38b146103a257610121565b80638da5cb5b1461026257806395d89b411461028057806398bdf6f51461029e578063a22cb465146102bc578063b88d4fde146102d857610121565b806323b872dd116100f457806323b872dd146101c057806342842e0e146101dc5780636352211e146101f857806370a0823114610228578063715018a61461025857610121565b806301ffc9a71461012657806306fdde0314610156578063081812fc14610174578063095ea7b3146101a4575b600080fd5b610140600480360381019061013b9190611b34565b6103be565b60405161014d9190611b7c565b60405180910390f35b61015e61041f565b60405161016b9190611c27565b60405180910390f35b61018e60048036038101906101899190611c7f565b6104b1565b60405161019b9190611ced565b60405180910390f35b6101be60048036038101906101b99190611d34565b6104cd565b005b6101da60048036038101906101d59190611d74565b6104e3565b005b6101f660048036038101906101f19190611d74565b6105e5565b005b610212600480360381019061020d9190611c7f565b610605565b60405161021f9190611ced565b60405180910390f35b610242600480360381019061023d9190611dc7565b610617565b60405161024f9190611e03565b60405180910390f35b6102606106d1565b005b61026a6106e5565b6040516102779190611ced565b60405180910390f35b61028861070f565b6040516102959190611c27565b60405180910390f35b6102a66107a1565b6040516102b39190611e03565b60405180910390f35b6102d660048036038101906102d19190611e4a565b6107a7565b005b6102f260048036038101906102ed9190611fbf565b6107bd565b005b61030e60048036038101906103099190611c7f565b6107e2565b60405161031b9190611c27565b60405180910390f35b61033e600480360381019061033991906120e3565b6108f5565b60405161034b9190611e03565b60405180910390f35b61035c610933565b6040516103699190611e03565b60405180910390f35b61038c6004803603810190610387919061213f565b61093d565b6040516103999190611b7c565b60405180910390f35b6103bc60048036038101906103b79190611dc7565b6109d1565b005b6000634906490660e01b7bffffffffffffffffffffffffffffffffffffffffffffffffffffffff1916827bffffffffffffffffffffffffffffffffffffffffffffffffffffffff19161480610418575061041782610a57565b5b9050919050565b60606000805461042e906121ae565b80601f016020809104026020016040519081016040528092919081815260200182805461045a906121ae565b80156104a75780601f1061047c576101008083540402835291602001916104a7565b820191906000526020600020905b81548152906001019060200180831161048a57829003601f168201915b5050505050905090565b60006104bc82610b39565b506104c682610bc1565b9050919050565b6104df82826104da610bfe565b610c06565b5050565b600073ffffffffffffffffffffffffffffffffffffffff168273ffffffffffffffffffffffffffffffffffffffff16036105555760006040517f64a0ae9200000000000000000000000000000000000000000000000000000000815260040161054c9190611ced565b60405180910390fd5b60006105698383610564610bfe565b610c18565b90508373ffffffffffffffffffffffffffffffffffffffff168173ffffffffffffffffffffffffffffffffffffffff16146105df578382826040517f64283d7b0000000000000000000000000000000000000000000000000000000081526004016105d6939291906121df565b60405180910390fd5b50505050565b610600838383604051806020016040528060008152506107bd565b505050565b600061061082610b39565b9050919050565b60008073ffffffffffffffffffffffffffffffffffffffff168273ffffffffffffffffffffffffffffffffffffffff160361068a5760006040517f89c62b640000000000000000000000000000000000000000000000000000000081526004016106819190611ced565b60405180910390fd5b600360008373ffffffffffffffffffffffffffffffffffffffff1673ffffffffffffffffffffffffffffffffffffffff168152602001908152602001600020549050919050565b6106d9610e32565b6106e36000610eb9565b565b6000600760009054906101000a900473ffffffffffffffffffffffffffffffffffffffff16905090565b60606001805461071e906121ae565b80601f016020809104026020016040519081016040528092919081815260200182805461074a906121ae565b80156107975780601f1061076c57610100808354040283529160200191610797565b820191906000526020600020905b81548152906001019060200180831161077a57829003601f168201915b5050505050905090565b60085481565b6107b96107b2610bfe565b8383610f7f565b5050565b6107c88484846104e3565b6107dc6107d3610bfe565b858585856110ee565b50505050565b60606107ed82610b39565b50600060066000848152602001908152602001600020805461080e906121ae565b80601f016020809104026020016040519081016040528092919081815260200182805461083a906121ae565b80156108875780601f1061085c57610100808354040283529160200191610887565b820191906000526020600020905b81548152906001019060200180831161086a57829003601f168201915b50505050509050600061089861129f565b905060008151036108ad5781925050506108f0565b6000825111156108e25780826040516020016108ca929190612252565b604051602081830303815290604052925050506108f0565b6108eb846112b6565b925050505b919050565b6000806008549050610907848261131f565b610911818461133d565b60086000815480929190610924906122a5565b91905055508091505092915050565b6000600854905090565b6000600560008473ffffffffffffffffffffffffffffffffffffffff1673ffffffffffffffffffffffffffffffffffffffff16815260200190815260200160002060008373ffffffffffffffffffffffffffffffffffffffff1673ffffffffffffffffffffffffffffffffffffffff16815260200190815260200160002060009054906101000a900460ff16905092915050565b6109d9610e32565b600073ffffffffffffffffffffffffffffffffffffffff168173ffffffffffffffffffffffffffffffffffffffff1603610a4b5760006040517f1e4fbdf7000000000000000000000000000000000000000000000000000000008152600401610a429190611ced565b60405180910390fd5b610a5481610eb9565b50565b60007f80ac58cd000000000000000000000000000000000000000000000000000000007bffffffffffffffffffffffffffffffffffffffffffffffffffffffff1916827bffffffffffffffffffffffffffffffffffffffffffffffffffffffff19161480610b2257507f5b5e139f000000000000000000000000000000000000000000000000000000007bffffffffffffffffffffffffffffffffffffffffffffffffffffffff1916827bffffffffffffffffffffffffffffffffffffffffffffffffffffffff1916145b80610b325750610b3182611399565b5b9050919050565b600080610b4583611403565b9050600073ffffffffffffffffffffffffffffffffffffffff168173ffffffffffffffffffffffffffffffffffffffff1603610bb857826040517f7e273289000000000000000000000000000000000000000000000000000000008152600401610baf9190611e03565b60405180910390fd5b80915050919050565b60006004600083815260200190815260200160002060009054906101000a900473ffffffffffffffffffffffffffffffffffffffff169050919050565b600033905090565b610c138383836001611440565b505050565b600080610c2484611403565b9050600073ffffffffffffffffffffffffffffffffffffffff168373ffffffffffffffffffffffffffffffffffffffff1614610c6657610c65818486611605565b5b600073ffffffffffffffffffffffffffffffffffffffff168173ffffffffffffffffffffffffffffffffffffffff1614610cf757610ca8600085600080611440565b6001600360008373ffffffffffffffffffffffffffffffffffffffff1673ffffffffffffffffffffffffffffffffffffffff168152602001908152602001600020600082825403925050819055505b600073ffffffffffffffffffffffffffffffffffffffff168573ffffffffffffffffffffffffffffffffffffffff1614610d7a576001600360008773ffffffffffffffffffffffffffffffffffffffff1673ffffffffffffffffffffffffffffffffffffffff168152602001908152602001600020600082825401925050819055505b846002600086815260200190815260200160002060006101000a81548173ffffffffffffffffffffffffffffffffffffffff021916908373ffffffffffffffffffffffffffffffffffffffff160217905550838573ffffffffffffffffffffffffffffffffffffffff168273ffffffffffffffffffffffffffffffffffffffff167fddf252ad1be2c89b69c2b068fc378daa952ba7f163c4a11628f55a4df523b3ef60405160405180910390a4809150509392505050565b610e3a610bfe565b73ffffffffffffffffffffffffffffffffffffffff16610e586106e5565b73ffffffffffffffffffffffffffffffffffffffff1614610eb757610e7b610bfe565b6040517f118cdaa7000000000000000000000000000000000000000000000000000000008152600401610eae9190611ced565b60405180910390fd5b565b6000600760009054906101000a900473ffffffffffffffffffffffffffffffffffffffff16905081600760006101000a81548173ffffffffffffffffffffffffffffffffffffffff021916908373ffffffffffffffffffffffffffffffffffffffff1602179055508173ffffffffffffffffffffffffffffffffffffffff168173ffffffffffffffffffffffffffffffffffffffff167f8be0079c531659141344cd1fd0a4f28419497f9722a3daafe3b4186f6b6457e060405160405180910390a35050565b600073ffffffffffffffffffffffffffffffffffffffff168273ffffffffffffffffffffffffffffffffffffffff1603610ff057816040517f5b08ba18000000000000000000000000000000000000000000000000000000008152600401610fe79190611ced565b60405180910390fd5b80600560008573ffffffffffffffffffffffffffffffffffffffff1673ffffffffffffffffffffffffffffffffffffffff16815260200190815260200160002060008473ffffffffffffffffffffffffffffffffffffffff1673ffffffffffffffffffffffffffffffffffffffff16815260200190815260200160002060006101000a81548160ff0219169083151502179055508173ffffffffffffffffffffffffffffffffffffffff168373ffffffffffffffffffffffffffffffffffffffff167f17307eab39ab6107e8899845ad3d59bd9653f200f220920489ca2b5937696c31836040516110e19190611b7c565b60405180910390a3505050565b60008373ffffffffffffffffffffffffffffffffffffffff163b1115611298578273ffffffffffffffffffffffffffffffffffffffff1663150b7a02868685856040518563ffffffff1660e01b815260040161114d9493929190612342565b6020604051808303816000875af192505050801561118957506040513d601f19601f8201168201806040525081019061118691906123a3565b60015b61120d573d80600081146111b9576040519150601f19603f3d011682016040523d82523d6000602084013e6111be565b606091505b50600081510361120557836040517f64a0ae920000000000000000000000000000000000000000000000000000000081526004016111fc9190611ced565b60405180910390fd5b805181602001fd5b63150b7a0260e01b7bffffffffffffffffffffffffffffffffffffffffffffffffffffffff1916817bffffffffffffffffffffffffffffffffffffffffffffffffffffffff19161461129657836040517f64a0ae9200000000000000000000000000000000000000000000000000000000815260040161128d9190611ced565b60405180910390fd5b505b5050505050565b606060405180602001604052806000815250905090565b60606112c182610b39565b5060006112cc61129f565b905060008151116112ec5760405180602001604052806000815250611317565b806112f6846116c9565b604051602001611307929190612252565b6040516020818303038152906040525b915050919050565b611339828260405180602001604052806000815250611797565b5050565b8060066000848152602001908152602001600020908161135d919061257c565b507ff8e1a15aba9398e019f0b49df1a4fde98ee17ae345cb5f6b5e2c27f5033e8ce78260405161138d9190611e03565b60405180910390a15050565b60007f01ffc9a7000000000000000000000000000000000000000000000000000000007bffffffffffffffffffffffffffffffffffffffffffffffffffffffff1916827bffffffffffffffffffffffffffffffffffffffffffffffffffffffff1916149050919050565b60006002600083815260200190815260200160002060009054906101000a900473ffffffffffffffffffffffffffffffffffffffff169050919050565b80806114795750600073ffffffffffffffffffffffffffffffffffffffff168273ffffffffffffffffffffffffffffffffffffffff1614155b156115ad57600061148984610b39565b9050600073ffffffffffffffffffffffffffffffffffffffff168373ffffffffffffffffffffffffffffffffffffffff16141580156114f457508273ffffffffffffffffffffffffffffffffffffffff168173ffffffffffffffffffffffffffffffffffffffff1614155b80156115075750611505818461093d565b155b1561154957826040517fa9fbf51f0000000000000000000000000000000000000000000000000000000081526004016115409190611ced565b60405180910390fd5b81156115ab57838573ffffffffffffffffffffffffffffffffffffffff168273ffffffffffffffffffffffffffffffffffffffff167f8c5be1e5ebec7d5bd14f71427d1e84f3dd0314c0f7b2291e5b200ac8c7c3b92560405160405180910390a45b505b836004600085815260200190815260200160002060006101000a81548173ffffffffffffffffffffffffffffffffffffffff021916908373ffffffffffffffffffffffffffffffffffffffff16021790555050505050565b6116108383836117bb565b6116c457600073ffffffffffffffffffffffffffffffffffffffff168373ffffffffffffffffffffffffffffffffffffffff160361168557806040517f7e27328900000000000000000000000000000000000000000000000000000000815260040161167c9190611e03565b60405180910390fd5b81816040517f177e802f0000000000000000000000000000000000000000000000000000000081526004016116bb92919061264e565b60405180910390fd5b505050565b6060600060016116d88461187c565b01905060008167ffffffffffffffff8111156116f7576116f6611e94565b5b6040519080825280601f01601f1916602001820160405280156117295781602001600182028036833780820191505090505b509050600082602001820190505b60011561178c578080600190039150507f3031323334353637383961626364656600000000000000000000000000000000600a86061a8153600a85816117805761177f612677565b5b04945060008503611737575b819350505050919050565b6117a183836119cf565b6117b66117ac610bfe565b60008585856110ee565b505050565b60008073ffffffffffffffffffffffffffffffffffffffff168373ffffffffffffffffffffffffffffffffffffffff161415801561187357508273ffffffffffffffffffffffffffffffffffffffff168473ffffffffffffffffffffffffffffffffffffffff1614806118345750611833848461093d565b5b8061187257508273ffffffffffffffffffffffffffffffffffffffff1661185a83610bc1565b73ffffffffffffffffffffffffffffffffffffffff16145b5b90509392505050565b600080600090507a184f03e93ff9f4daa797ed6e38ed64bf6a1f01000000000000000083106118da577a184f03e93ff9f4daa797ed6e38ed64bf6a1f01000000000000000083816118d0576118cf612677565b5b0492506040810190505b6d04ee2d6d415b85acef81000000008310611917576d04ee2d6d415b85acef8100000000838161190d5761190c612677565b5b0492506020810190505b662386f26fc10000831061194657662386f26fc10000838161193c5761193b612677565b5b0492506010810190505b6305f5e100831061196f576305f5e100838161196557611964612677565b5b0492506008810190505b612710831061199457612710838161198a57611989612677565b5b0492506004810190505b606483106119b757606483816119ad576119ac612677565b5b0492506002810190505b600a83106119c6576001810190505b80915050919050565b600073ffffffffffffffffffffffffffffffffffffffff168273ffffffffffffffffffffffffffffffffffffffff1603611a415760006040517f64a0ae92000000000000000000000000000000000000000000000000000000008152600401611a389190611ced565b60405180910390fd5b6000611a4f83836000610c18565b9050600073ffffffffffffffffffffffffffffffffffffffff168173ffffffffffffffffffffffffffffffffffffffff1614611ac35760006040517f73c6ac6e000000000000000000000000000000000000000000000000000000008152600401611aba9190611ced565b60405180910390fd5b505050565b6000604051905090565b600080fd5b600080fd5b60007fffffffff0000000000000000000000000000000000000000000000000000000082169050919050565b611b1181611adc565b8114611b1c57600080fd5b50565b600081359050611b2e81611b08565b92915050565b600060208284031215611b4a57611b49611ad2565b5b6000611b5884828501611b1f565b91505092915050565b60008115159050919050565b611b7681611b61565b82525050565b6000602082019050611b916000830184611b6d565b92915050565b600081519050919050565b600082825260208201905092915050565b60005b83811015611bd1578082015181840152602081019050611bb6565b60008484015250505050565b6000601f19601f8301169050919050565b6000611bf982611b97565b611c038185611ba2565b9350611c13818560208601611bb3565b611c1c81611bdd565b840191505092915050565b60006020820190508181036000830152611c418184611bee565b905092915050565b6000819050919050565b611c5c81611c49565b8114611c6757600080fd5b50565b600081359050611c7981611c53565b92915050565b600060208284031215611c9557611c94611ad2565b5b6000611ca384828501611c6a565b91505092915050565b600073ffffffffffffffffffffffffffffffffffffffff82169050919050565b6000611cd782611cac565b9050919050565b611ce781611ccc565b82525050565b6000602082019050611d026000830184611cde565b92915050565b611d1181611ccc565b8114611d1c57600080fd5b50565b600081359050611d2e81611d08565b92915050565b60008060408385031215611d4b57611d4a611ad2565b5b6000611d5985828601611d1f565b9250506020611d6a85828601611c6a565b9150509250929050565b600080600060608486031215611d8d57611d8c611ad2565b5b6000611d9b86828701611d1f565b9350506020611dac86828701611d1f565b9250506040611dbd86828701611c6a565b9150509250925092565b600060208284031215611ddd57611ddc611ad2565b5b6000611deb84828501611d1f565b91505092915050565b611dfd81611c49565b82525050565b6000602082019050611e186000830184611df4565b92915050565b611e2781611b61565b8114611e3257600080fd5b50565b600081359050611e4481611e1e565b92915050565b60008060408385031215611e6157611e60611ad2565b5b6000611e6f85828601611d1f565b9250506020611e8085828601611e35565b9150509250929050565b600080fd5b600080fd5b7f4e487b7100000000000000000000000000000000000000000000000000000000600052604160045260246000fd5b611ecc82611bdd565b810181811067ffffffffffffffff82111715611eeb57611eea611e94565b5b80604052505050565b6000611efe611ac8565b9050611f0a8282611ec3565b919050565b600067ffffffffffffffff821115611f2a57611f29611e94565b5b611f3382611bdd565b9050602081019050919050565b82818337600083830152505050565b6000611f62611f5d84611f0f565b611ef4565b905082815260208101848484011115611f7e57611f7d611e8f565b5b611f89848285611f40565b509392505050565b600082601f830112611fa657611fa5611e8a565b5b8135611fb6848260208601611f4f565b91505092915050565b60008060008060808587031215611fd957611fd8611ad2565b5b6000611fe787828801611d1f565b9450506020611ff887828801611d1f565b935050604061200987828801611c6a565b925050606085013567ffffffffffffffff81111561202a57612029611ad7565b5b61203687828801611f91565b91505092959194509250565b600067ffffffffffffffff82111561205d5761205c611e94565b5b61206682611bdd565b9050602081019050919050565b600061208661208184612042565b611ef4565b9050828152602081018484840111156120a2576120a1611e8f565b5b6120ad848285611f40565b509392505050565b600082601f8301126120ca576120c9611e8a565b5b81356120da848260208601612073565b91505092915050565b600080604083850312156120fa576120f9611ad2565b5b600061210885828601611d1f565b925050602083013567ffffffffffffffff81111561212957612128611ad7565b5b612135858286016120b5565b9150509250929050565b6000806040838503121561215657612155611ad2565b5b600061216485828601611d1f565b925050602061217585828601611d1f565b9150509250929050565b7f4e487b7100000000000000000000000000000000000000000000000000000000600052602260045260246000fd5b600060028204905060018216806121c657607f821691505b6020821081036121d9576121d861217f565b5b50919050565b60006060820190506121f46000830186611cde565b6122016020830185611df4565b61220e6040830184611cde565b949350505050565b600081905092915050565b600061222c82611b97565b6122368185612216565b9350612246818560208601611bb3565b80840191505092915050565b600061225e8285612221565b915061226a8284612221565b91508190509392505050565b7f4e487b7100000000000000000000000000000000000000000000000000000000600052601160045260246000fd5b60006122b082611c49565b91507fffffffffffffffffffffffffffffffffffffffffffffffffffffffffffffffff82036122e2576122e1612276565b5b600182019050919050565b600081519050919050565b600082825260208201905092915050565b6000612314826122ed565b61231e81856122f8565b935061232e818560208601611bb3565b61233781611bdd565b840191505092915050565b60006080820190506123576000830187611cde565b6123646020830186611cde565b6123716040830185611df4565b81810360608301526123838184612309565b905095945050505050565b60008151905061239d81611b08565b92915050565b6000602082840312156123b9576123b8611ad2565b5b60006123c78482850161238e565b91505092915050565b60008190508160005260206000209050919050565b60006020601f8301049050919050565b600082821b905092915050565b6000600883026124327fffffffffffffffffffffffffffffffffffffffffffffffffffffffffffffffff826123f5565b61243c86836123f5565b95508019841693508086168417925050509392505050565b6000819050919050565b600061247961247461246f84611c49565b612454565b611c49565b9050919050565b6000819050919050565b6124938361245e565b6124a761249f82612480565b848454612402565b825550505050565b600090565b6124bc6124af565b6124c781848461248a565b505050565b5b818110156124eb576124e06000826124b4565b6001810190506124cd565b5050565b601f82111561253057612501816123d0565b61250a846123e5565b81016020851015612519578190505b61252d612525856123e5565b8301826124cc565b50505b505050565b600082821c905092915050565b600061255360001984600802612535565b1980831691505092915050565b600061256c8383612542565b9150826002028217905092915050565b61258582611b97565b67ffffffffffffffff81111561259e5761259d611e94565b5b6125a882546121ae565b6125b38282856124ef565b600060209050601f8311600181146125e657600084156125d4578287015190505b6125de8582612560565b865550612646565b601f1984166125f4866123d0565b60005b8281101561261c578489015182556001820191506020850194506020810190506125f7565b868310156126395784890151612635601f891682612542565b8355505b6001600288020188555050505b505050505050565b60006040820190506126636000830185611cde565b6126706020830184611df4565b9392505050565b7f4e487b7100000000000000000000000000000000000000000000000000000000600052601260045260246000fdfea26469706673582212209ca9fc87f004972cb133c67de120b05f99080c8311a39da7aa4e436443301ef864736f6c63430008140033",
  "linkReferences": {},
  "deployedLinkReferences": {}
}